:020000000C945E
:100002003E000C9400000C9400000C9400000C9430
:1000120000000C9400000C9400000C9400000C945E
:1000220000000C946E000C9400000C9400000C94E0
:1000320000000C9400000C9400000C9400000C943E
:1000420000000C9400000C9400000C9400000C942E
:1000520000001027E80364000A00010000100001FC
:100062001000010054696D6572300025346400008F
:1000720080C00200700172000000F894EE27ECBB11
:10008200F1E0FBBFEBBFE5BFF8E1F1BDE1BD8DE003
:10009200A2E0BB27ED938A95E9F780E094E0A0E621
:1000A200ED930197E9F7E4E7F0E0859195910097E8
:1000B20061F0A591B59105901590BF01F0010590F1
:1000C2000D920197E1F7FB01F0CFEFE5EDBFE4E020
:1000D200EEBFC0E6D1E00C947C00EA93FA93EFB74E
:1000E200EA93E4E9E2BFF20131962F01E991EFBF11
:1000F200F991E9911895E0E0EBBBEABBE8BBECE7CC
:10010200E7BBE0E0E5BBE4BBE2BBE1BBE1E0E3BFB0
:10011200E4E9E2BFE0E0ECBFEFBDEEBDEDBDECBD5A
:10012200E7BDE6BDEBBDEABDE9BDE8BDE2BDE5BDAB
:10013200E4BDE3BDE5BFE4BFE1E0E9BFE0E0EAB969
:10014200E0E8E8B9E0E0E0BFE6B9EDB9E6BFA0E17A
:100152000E94F6027894E4E6F0E04E165F062CF078
:10016200F30131963F0144245524E0E0EA93A0E0F4
:100172000E94A602A6E6B0E00E94E302E0E6F1E0F9
:10018200FA93EA93EDE6F0E0FA93EA93F3010E9420
:1001920089030E94960384E00E9452022896E0E0BE
:1001A200EA93A1E00E94A602A0E6B1E00E94D40276
:1001B200D2CFFFCFBA93AA931A930A93AA81BB8193
:1001C20012960E948E03309759F1AA81BB81149630
:1001D2000E948E038F01309761F00230E0E01E072B
:1001E200F0F0F80131978F01AA81BB811496ED934B
:1001F200FC93AA81BB811296ED91FD913196FE93FB
:10020200EE933197AC81A083AA81BB810E948E03B9
:10021200FF232AF0ED91FD913196FE93EE9306C0F5
:10022200AA81BB81EFEFFFEFED93FC931981088167
:1002320025960895BA93AA9326970E949B0310E0ED
:10024200AC85BD85E0E0F0E0ED93FC93EA89FB89A3
:100252003196EA8BFB8B3197E4912E2FE03011F42B
:100262000C944A02E12FE03039F4253211F411E006
:1002720002C00E943D030CC1E130A9F4253219F4F9
:100282000E943D0304C112E040E000E02D3211F46F
:1002920001E0FEC02B3211F44BE2FAC0203211F41D
:1002A20040E2F6C002C0E23039F450E013E02033FD
:1002B20011F40068EDC004C0E33011F00C9449025F
:1002C200203310F02A3308F007C0AAE05A9F502DBD
:1002D200E22FE0535E0FDCC0E22FE33649F40E94C6
:1002E2004403E889F989A481AA930E944A03CFC0F2
:1002F200E33741F40E9444030E9450030E94240306
:100302001E2F0AC0E03761F40E9444030E9450038A
:100312000E9430031E2F086002600F7730E035C064
:10032200E43611F0E93611F4046002C0E53731F425
:10033200E4E5F0E0EE83FF8315E00DC0E83511F44B
:10034200086004C0E83711F00C944802EEE5F0E0D2
:10035200EE83FF8314E002FF14C00E9444030E9454
:100362005A03AB85AA233AF4EA85FB850E948503EA
:10037200EA87FB874DE2403011F01F5F01C00B7F1F
:1003820004C00E9444030E945A0300FD11C01517C5
:1003920078F407FF08C002FF04C00B7F242F11501E
:1003A20001C020E301C020E20E943D035150EFCF83
:1003B200312F01FF17C03030A1F003FF06C0EE81DC
:1003C200FF812591EE83FF8305C0AE81BF812D9110
:1003D200AE83BF830E943D03503009F0515031502B
:1003E200EACF4BC020E3EE81FF810E949203E887AF
:1003F200F987EE81FF813296EE83FF83E885F985E6
:10040200AA85BB85AE17BF0750F02F5FA885B985B7
:10041200EA85FB85EA1BFB0BEA87FB87EFCF2A33D2
:1004220028F003FF02C0295F01C0295D04FD1AC044
:10043200213320F4A885B985119709F409C053170F
:1004420010F000FF01C013C020E207FF0BC020E341
:10045200006102FF07C00B7F4A930E944A0350309B
:1004620009F051500E943D03503009F05150315073
:10047200A885B985129708F0B5CF00FF08C05030A3
:1004820031F05150E0E2EA930E944A03F8CF10E0C3
:10049200DDCEAC85BD850E948E030E94A2036496C8
:1004A2000895FF92F82E26970E949D030E946203F0
:1004B200309719F4EFEFFFEF23C0DE0116960E948A
:1004C20081038D010E946203EE83FF83E0E0E887EF
:1004D200E987DE011A960E9481030E948E03FA9335
:1004E200EA931A930A93EBEDF0E0FA93EA93DE01B2
:1004F2001A96A0DE9F01AE81BF81E0E0EC93F90184
:100502000E94A4032A96FF900895AA93E2B3EF7083
:10051200AE2FE881E07FEA2BE2BB87E08A95F1F714
:10052200929A82E18A95F1F7929882E18A95F1F79F
:1005320088C0AA93A881E9DFE881E295E883A881CF
:10054200E4DF88EB8A95F1F77CC0AA93E881F0E0BA
:10055200E059FE4FE081A981AE0FEBDF99808880E0
:1005620022960895A2E00E946903ACE0E2DFA1E0D6
:100572000E946903E0E08E2E9E2E0895AA93A88120
:10058200AA3011F09B1448F0E0E0EA938394A82D7E
:10059200DCDFA881AA3009F454C09394909AA88110
:1005A200C8DF90984EC0BA93AA931A93A981BA81D0
:1005B200ED91A983BA831E2FE03019F0A12FDEDF5F
:1005C200F5CF10C0BA93AA931A93E981FA813196B2
:1005D200E983FA833197E4911E2FE03019F0A12FBD
:1005E200CDDFF3CF188123960895AA93E1B3E06F8C
:1005F200E1BB8A9A889A899A929890989198B88041
:10060200E881E058E0937201E881E054E0937301DD
:10061200A4E1B0E00E9477030E946F030E946F037F
:100622000E946F03A0E271DF84E191E00197F1F78C
:10063200A8E27FDFA4E07DDFA5E87BDFA6E079DF2B
:1006420091DF21960895BA93AA93A991B991EE27C1
:10065200FF276D91662311F03196FBCF0895BA936F
:10066200AA93AA27BB27E991F9910590002011F0DE
:100672001196FBCFFD0108952A93AD85BE85EF85C6
:10068200F88909950895E889F9893497E88BF98BF7
:100692000895AD85BE85EF85F88909950895A889E5
:1006A200B98914960E948E03EE83FF83AE81BF81C7
:1006B2000895A889B98914960E948E03EA87FB8758
:1006C2000895DE011C960E9481030E948E03089504
:1006D2000E949A02A3E0B0E00C947703A0E30E9488
:1006E200860284E191E00197F1F70895109639F0BE
:1006F2008DEC9AE00197F1F7A8951197C9F7089543
:100702000024AF0DB01D0895F195E195F0400895D4
:100712006F2F660F660B762F0895ED91FC9111975E
:1007220008950590F491E02D08957A936A93FA93CF
:10073200EA9308955A934A933A932A931A930A93FF
:1007420008955D814C813B812A8119810881089538
:00000001FF
