:080000000C942A000C94480046
:100008000C9400000C9400000C9400000C94000068
:100018000C9400000C9400000C9400000C94000058
:100028000C9400000C9400000C9400000C94000048
:100038000C9400000C9400000C9400000C94000038
:100048000C9400000C9400000C940000F894EE2727
:10005800ECBBF1E0FBBFEBBFE5BFF8E1F1BDE1BDF3
:100068008DE0A2E0BB27ED938A95E9F780E094E064
:10007800A0E6ED930197E9F7EFE5EDBFE4E0EEBF09
:10008800C0E6D1E00C944A00C29A1895E0E0EBBBB8
:10009800EABBE8BBE4E0E7BBE0E0E5BBE4BBE2BB0E
:1000A800E1BBE3BFE2BFECBFEFBDEEBDEDBDECBD14
:1000B800E7BDE6BDEBBDEABDE9BDE8BDE2BDE5BD16
:1000C800E4BDE3BDEBB7E064EBBFE3E0E5BFE0E030
:1000D800E4BFE0E4EABFE0E0E9BFEAB9E0E8E8B994
:1000E800E0E0E0BFE6B9EDB9E6BF7894FFCFFFCF17
:00000001FF
