:100000000C943A000C9400000C9400000C94000036
:100010000C9400000C9400000C9400000C94000060
:100020000C9400000C946A000C9400000C940000E6
:100030000C9400000C9400000C9400000C94000040
:100040000C9400000C9400000C9400000C94000030
:100050000C9400001027E80364000A00010000105F
:100060000001100001002564000080C00200700142
:100070006A000000F894EE27ECBBF1E0FBBFEBBF99
:10008000E5BFF8E1F1BDE1BD8DE0A2E0BB27ED9356
:100090008A95E9F780E094E0A0E6ED930197E9F70F
:1000A000ECE6F0E085919591009761F0A591B5910E
:1000B00005901590BF01F00105900D920197E1F7B1
:1000C000FB01F0CFEFE5EDBFE4E0EEBFC0E6D1E02D
:1000D0000C948300EA93EFB75394451410F0C29840
:1000E00001C0C29AEFBFE9911895AA93E881E06236
:1000F000E7B985E28A95F1F7369A349BFECF349AB8
:10010000E5B10C940E03E0E0EBBBEABBE8BBEFEF1C
:10011000E7BBE0E0E5BBE4BBE2BBE1BBE1E0E3BFA2
:10012000E0E0E2BFECBFEFBDEEBDEDBDECBDE7BD75
:10013000E6BDEBBDEABDE9BDE8BDE2BDE5BDE4BDA0
:10014000E3BDE5BFE4BFE1E0E9BFE0E0EAB9E0E834
:10015000E8B9E0E0E0BFE0E2E7B9E4E8E6B9E0E012
:10016000EDB9E6BFA0E10E94E2027894A5E0BDDF10
:100170004E2EE0E6F1E0FA93EA93E6E6F0E0FA9339
:10018000EA93E42DFF27662777270E947D0384E00A
:100190000E944F022896E0E0EA93A0E00E94A302AA
:1001A000A0E6B1E00E94D1020E94B002DFCFFFCFF3
:1001B000BA93AA931A930A93AA81BB8112960E94BA
:1001C0007503309759F1AA81BB8114960E9475037B
:1001D0008F01309761F00230E0E01E07F0F0F80187
:1001E00031978F01AA81BB811496ED93FC93AA816C
:1001F000BB811296ED91FD913196FE93EE9331976E
:10020000AC81A083AA81BB810E947503FF232AF0E1
:10021000ED91FD913196FE93EE9306C0AA81BB81CC
:10022000EFEFFFEFED93FC93198108812596089578
:10023000BA93AA9326970E94820310E0AC85BD85ED
:10024000E0E0F0E0ED93FC93EA89FB893196EA8BDC
:10025000FB8B3197E4912E2FE03011F40C94470280
:10026000E12FE03039F4253211F411E002C00E9490
:1002700029030CC1E130A9F4253219F40E942903A5
:1002800004C112E040E000E02D3211F401E0FEC0B4
:100290002B3211F44BE2FAC0203211F440E2F6C0E6
:1002A00002C0E23039F450E013E0203311F400686A
:1002B000EDC004C0E33011F00C944602203310F07E
:1002C0002A3308F007C0AAE05A9F502DE22FE053CE
:1002D0005E0FDCC0E22FE33649F40E943003E88968
:1002E000F989A481AA930E943603CFC0E33741F471
:1002F0000E9430030E943C030E9410031E2F0AC07C
:10030000E03761F40E9430030E943C030E941C030A
:100310001E2F086002600F7730E035C0E43611F020
:10032000E93611F4046002C0E53731F4E4E5F0E0A9
:10033000EE83FF8315E00DC0E83511F4086004C0BA
:10034000E83711F00C944502EEE5F0E0EE83FF8310
:1003500014E002FF14C00E9430030E944603AB85E4
:10036000AA233AF4EA85FB850E947103EA87FB879A
:100370004DE2403011F01F5F01C00B7F04C00E94AE
:1003800030030E94460300FD11C0151778F407FFE3
:1003900008C002FF04C00B7F242F115001C020E3CE
:1003A00001C020E20E9429035150EFCF312F01FFFD
:1003B00017C03030A1F003FF06C0EE81FF81259108
:1003C000EE83FF8305C0AE81BF812D91AE83BF83D5
:1003D0000E942903503009F051503150EACF4BC0F0
:1003E00020E3EE81FF810E947903E887F987EE819F
:1003F000FF813296EE83FF83E885F985AA85BB8568
:10040000AE17BF0750F02F5FA885B985EA85FB8539
:10041000EA1BFB0BEA87FB87EFCF2A3328F003FFA9
:1004200002C0295F01C0295D04FD1AC0213320F4F8
:10043000A885B985119709F409C0531710F000FF7A
:1004400001C013C020E207FF0BC020E3006102FFE0
:1004500007C00B7F4A930E943603503009F0515079
:100460000E942903503009F051503150A885B985B8
:10047000129708F0B5CF00FF08C0503031F051504E
:10048000E0E2EA930E943603F8CF10E0DDCEAC85BF
:10049000BD850E9475030E94890364960895FF92AA
:1004A000F82E26970E9484030E944E03309719F479
:1004B000EFEFFFEF23C0DE0116960E946D038D0162
:1004C0000E944E03EE83FF83E0E0E887E987DE01C8
:1004D0001A960E946D030E947503FA93EA931A9389
:1004E0000A93E8EDF0E0FA93EA93DE011A96A0DEB3
:1004F0009F01AE81BF81E0E0EC93F9010E948B0384
:100500002A96FF900895AA93E2B3EF70AE2FE88188
:10051000E07FEA2BE2BB87E08A95F1F7929A82E1CD
:100520008A95F1F7929882E18A95F1F777C0AA93BC
:10053000A881E9DFE881E295E883A881E4DF88EB20
:100540008A95F1F76BC0AA93E881F0E0E059FE4F7D
:10055000E081A981AE0FEBDF798068802296089553
:10056000A2E00E945503ACE0E2DFA1E00E94550347
:10057000E0E06E2E7E2E0895AA93A881AA3011F095
:10058000791448F0E0E0EA936394A62DDCDFA881BB
:10059000AA3009F443C07394909AA881C8DF909858
:1005A0003DC0BA93AA931A93A981BA81ED91A98308
:1005B000BA831E2FE03019F0A12FDEDFF5CF1881AE
:1005C00023960895AA93E1B3E06FE1BB8A9A889AD3
:1005D000899A9298909891989880E881E058E09351
:1005E0007201E881E054E0937301A4E1B0E00E945D
:1005F00063030E945B030E945B030E945B03A0E213
:1006000082DF84E191E00197F1F7A8E290DFA4E0B6
:100610008EDFA5E88CDFA6E08ADFA2DF21960895B1
:10062000BA93AA93A991B991EE27FF276D916623FA
:1006300011F03196FBCF0895BA93AA93AA27BB274E
:10064000E991F9910590002011F01196FBCFFD0181
:1006500008952A93AD85BE85EF85F889099508959B
:10066000E889F9893497E88BF98B0895AD85BE85C3
:10067000EF85F88909950895A889B98914960E948B
:100680007503EE83FF83AE81BF810895A889B98980
:1006900014960E947503EA87FB870895DE011C9675
:1006A0000E946D030E94750308950E949702A3E0C3
:1006B000B0E00C946303A0E30E94830284E191E024
:1006C0000197F1F70895109639F08DEC9AE00197B3
:1006D000F1F7A8951197C9F708950024AF0DB01D43
:1006E0000895F195E195F0400895ED91FC911197F1
:1006F00008950590F491E02D08957A936A93FA9302
:10070000EA9308955A934A933A932A931A930A9331
:1007100008955D814C813B812A811981088108956A
:00000001FF
