:0C0000000C943B000C9400000C940000D9
:10000C000C9400000C9400000C9400000C94000064
:10001C000C9400000C9400000C946B000C940000E9
:10002C000C9400000C9400000C9400000C94000044
:10003C000C9400000C9400000C9400000C94000034
:10004C000C9400000C940000646174613D0001008C
:10005C002D4E414E00494E46000080C001007001FB
:10006C005A000200740166000000F894EE27ECBB05
:10007C00F1E0FBBFEBBFE5BFF8E1F1BDE1BD8DE009
:10008C00A2E0BB27ED938A95E9F780E094E0A0E627
:10009C00ED930197E9F7E8E6F0E0859195910097EB
:1000AC0061F0A591B59105901590BF01F0010590F7
:1000BC000D920197E1F7FB01F0CFEFE5EDBFE4E026
:1000CC00EEBFC0E6D1E00C949300EA93E4E9E2BF02
:1000DC00E9911895F301D2010E94D5010895D2013E
:1000EC000E94C5013F010895E0E0EA93A0E00E9460
:1000FC002901A4E5B0E00E9466017A926A92A0E61A
:10010C00B1E00E94DB00E0E0EA93A1E00E9429014B
:10011C00A0E6B1E00E9457010895E0E0EBBBEABB1A
:10012C00E8BBE7BBE5BBE4BBE2BBE1BBE1E0E3BFA3
:10013C00E4E9E2BFE0E0ECBFEFBDEEBDEDBDECBD30
:10014C00E7BDE6BDEBBDEABDE9BDE8BDE2BDE5BD81
:10015C00E4BDE3BDE5BFE4BFE1E0E9BFE0E0EAB93F
:10016C00E0E8E8B9E0E0E0BFE6B9EDB9E6BFA0E150
:10017C000E9479017894989B07C0F30131963F0156
:10018C0031970E94A70101C03301999B07C0F3016D
:10019C0031973F0131960E94A70101C033019FDFC7
:1001AC000E943601A1DFE7CFFFCFBA93AA93A991A2
:1001BC00B991E991F99130962AF4E095F095319640
:1001CC006DE26D93E89480E197E20DD088EE93E0B8
:1001DC000AD084E6992707D08AE005D06E2F10D07C
:1001EC0066276C9308956627E817F90720F0639546
:1001FC00E81BF90BC9F7662311F416F008956894FF
:10020C00605D6D930895AA93E2B3EF70AE2FE88111
:10021C00E07FEA2BE2BB87E08A95F1F7929A82E1C4
:10022C008A95F1F7929882E18A95F1F788C0AA93A2
:10023C00A881E9DFE881E295E883A881E4DF88EB17
:10024C008A95F1F77CC0AA93E881F0E0EC58FE4F58
:10025C00E081A981AE0FEBDF99808880229608950A
:10026C00A2E00E94AD01ACE0E2DFA1E00E94AD0192
:10027C00E0E08E2E9E2E0895AA93A881AA3011F04C
:10028C009B1448F0E0E0EA938394A82DDCDFA8816E
:10029C00AA3009F454C09394909AA881C8DF90981E
:1002AC004EC0BA93AA931A93A981BA81ED91A983EE
:1002BC00BA831E2FE03019F0A12FDEDFF5CF10C06E
:1002CC00BA93AA931A93E981FA813196E983FA8356
:1002DC003197E4911E2FE03019F0A12FCDDFF3CF31
:1002EC00188123960895AA93E1B3E06FE1BB8A9A33
:1002FC00889A899A929890989198B880E881E05859
:10030C00E0937601E881E054E0937701A4E1B0E05A
:10031C000E94BB010E94B3010E94B3010E94B30171
:10032C00A0E271DF84E191E00197F1F7A8E27FDFB1
:10033C00A4E07DDFA5E87BDFA6E079DF91DF2196E5
:10034C000895A8ECB0E00E94BB010C9470000E94D0
:10035C001D01A3E0B0E00C94BB01A0E30E940901D5
:10036C0084E191E00197F1F70895109639F08DEC46
:10037C009AE00197F1F7A8951197C9F7089511968E
:10038C0002D0FE2F1197E199FECFFF93FFB7F8949F
:10039C00AEBBBFBBE09AEDB3FFBFFF91089507D092
:1003AC001196EF93EF2F03D0EF9111970895E19BE6
:1003BC0002C0A895FCCF9FB7F894AEBBBFBBE09A28
:1003CC008DB3E81719F0EDBBE29AE19A9FBF08953F
:00000001FF
