:080000000C943C000C946C0010
:100008000C9400000C9400000C9400000C94000068
:100018000C9400000C9400000C9400000C94000058
:100028000C9400000C9400000C9400000C94000048
:100038000C9400000C9400000C9400000C94000038
:100048000C9400000C9400000C9400001027E803A6
:1000580064000A0001000010000110000100494E70
:1000680054300025690080C0020070016E00000055
:10007800F894EE27ECBBF1E0FBBFEBBFE5BFF8E17E
:10008800F1BDE1BD8DE0A2E0BB27ED938A95E9F7CC
:1000980080E094E0A0E6ED930197E9F7E0E7F0E06F
:1000A80085919591009761F0A591B591059015906E
:1000B800BF01F00105900D920197E1F7FB01F0CF28
:1000C800EFE5EDBFE4E0EEBFC0E6D1E00C947200CE
:1000D800EA93EFB75394EFBFE9911895E0E0EBBBD3
:1000E800EABBECE3E8BBE7BBE0E0E5BBE4BBE2BBB3
:1000F800E1BBE3BFE2BFECBFEFBDEEBDEDBDECBDC4
:10010800E7BDE6BDEBBDEABDE9BDE8BDE2BDE5BDC5
:10011800E4BDE3BDEBB7E064EBBFE3E0E5BFE0E0DF
:10012800E4BFE0E4EABFE0E0E9BFEAB9E0E8E8B943
:10013800E0E0E0BFE6B9EDB9E6BFA0E10E94E60263
:100148007894E0E0EA93A0E00E949602A6E6B0E088
:100158000E94D302E0E6F1E0FA93EA93EBE6F0E0DE
:10016800FA93EA93E52DFF27662777270E948103F4
:1001780084E00E9442022896E0E0EA93A1E00E940F
:100188009602A0E6B1E00E94C402DBCFFFCFBA938B
:10019800AA931A930A93AA81BB8112960E947903A3
:1001A800309759F1AA81BB8114960E9479038F0177
:1001B800309761F00230E0E01E07F0F0F801319767
:1001C8008F01AA81BB811496ED93FC93AA81BB8110
:1001D8001296ED91FD913196FE93EE933197AC8195
:1001E800A083AA81BB810E947903FF232AF0ED91A5
:1001F800FD913196FE93EE9306C0AA81BB81EFEF85
:10020800FFEFED93FC931981088125960895BA9321
:10021800AA9326970E94860310E0AC85BD85E0E08E
:10022800F0E0ED93FC93EA89FB893196EA8BFB8B2E
:100238003197E4912E2FE03011F40C943A02E12F1B
:10024800E03039F4253211F411E002C00E942D0388
:100258000CC1E130A9F4253219F40E942D0304C120
:1002680012E040E000E02D3211F401E0FEC02B3234
:1002780011F44BE2FAC0203211F440E2F6C002C099
:10028800E23039F450E013E0203311F40068EDC097
:1002980004C0E33011F00C943902203310F02A33F3
:1002A80008F007C0AAE05A9F502DE22FE0535E0FD6
:1002B800DCC0E22FE33649F40E943403E889F98967
:1002C800A481AA930E943A03CFC0E33741F40E9465
:1002D80034030E9440030E9414031E2F0AC0E03713
:1002E80061F40E9434030E9440030E9420031E2FE1
:1002F800086002600F7730E035C0E43611F0E93667
:1003080011F4046002C0E53731F4E4E5F0E0EE836F
:10031800FF8315E00DC0E83511F4086004C0E83724
:1003280011F00C943802EEE5F0E0EE83FF8314E060
:1003380002FF14C00E9434030E944A03AB85AA231B
:100348003AF4EA85FB850E947503EA87FB874DE24C
:10035800403011F01F5F01C00B7F04C00E943403BE
:100368000E944A0300FD11C0151778F407FF08C062
:1003780002FF04C00B7F242F115001C020E301C0ED
:1003880020E20E942D035150EFCF312F01FF17C0FB
:100398003030A1F003FF06C0EE81FF812591EE8386
:1003A800FF8305C0AE81BF812D91AE83BF830E94BC
:1003B8002D03503009F051503150EACF4BC020E3A3
:1003C800EE81FF810E947D03E887F987EE81FF8136
:1003D8003296EE83FF83E885F985AA85BB85AE173B
:1003E800BF0750F02F5FA885B985EA85FB85EA1B12
:1003F800FB0BEA87FB87EFCF2A3328F003FF02C005
:10040800295F01C0295D04FD1AC0213320F4A885A5
:10041800B985119709F409C0531710F000FF01C0FE
:1004280013C020E207FF0BC020E3006102FF07C0F2
:100438000B7F4A930E943A03503009F051500E94B2
:100448002D03503009F051503150A885B9851297C5
:1004580008F0B5CF00FF08C0503031F05150E0E24D
:10046800EA930E943A03F8CF10E0DDCEAC85BD8553
:100478000E9479030E948D0364960895FF92F82ED6
:1004880026970E9488030E945203309719F4EFEFD1
:10049800FFEF23C0DE0116960E9471038D010E94B2
:1004A8005203EE83FF83E0E0E887E987DE011A96CE
:1004B8000E9471030E947903FA93EA931A930A93AC
:1004C800EBECF0E0FA93EA93DE011A96A0DE9F01C6
:1004D800AE81BF81E0E0EC93F9010E948F032A9678
:1004E800FF900895AA93E2B3EF70AE2FE881E07F02
:1004F800EA2BE2BB87E08A95F1F7929A82E18A9526
:10050800F1F7929882E18A95F1F788C0AA93A881B9
:10051800E9DFE881E295E883A881E4DF88EB8A9542
:10052800F1F77CC0AA93E881F0E0E059FE4FE08142
:10053800A981AE0FEBDF4980788022960895A2E06A
:100548000E945903ACE0E2DFA1E00E945903E0E019
:100558007E2E4E2E0895AA93A881AA3011F0461433
:1005680048F0E0E0EA937394A72DDCDFA881AA3075
:1005780009F454C04394909AA881C8DF90984EC05B
:10058800BA93AA931A93A981BA81ED91A983BA83E0
:100598001E2FE03019F0A12FDEDFF5CF10C0BA937F
:1005A800AA931A93E981FA813196E983FA833197FC
:1005B800E4911E2FE03019F0A12FCDDFF3CF188181
:1005C80023960895AA93E1B3E06FE1BB8A9A889ACB
:1005D800899A9298909891986880E881E058E09379
:1005E8007201E881E054E0937301A4E1B0E00E9455
:1005F80067030E945F030E945F030E945F03A0E2FB
:1006080071DF84E191E00197F1F7A8E27FDFA4E0D0
:100618007DDFA5E87BDFA6E079DF91DF21960895ED
:10062800BA93AA93A991B991EE27FF276D916623F2
:1006380011F03196FBCF0895BA93AA93AA27BB2746
:10064800E991F9910590002011F01196FBCFFD0179
:1006580008952A93AD85BE85EF85F8890995089593
:10066800E889F9893497E88BF98B0895AD85BE85BB
:10067800EF85F88909950895A889B98914960E9483
:100688007903EE83FF83AE81BF810895A889B98974
:1006980014960E947903EA87FB870895DE011C9669
:1006A8000E9471030E94790308950E948A02A3E0C0
:1006B800B0E00C946703A0E30E94760284E191E025
:1006C8000197F1F70895109639F08DEC9AE00197AB
:1006D800F1F7A8951197C9F708950024AF0DB01D3B
:1006E8000895F195E195F0400895ED91FC911197E9
:1006F80008950590F491E02D08957A936A93FA93FA
:10070800EA9308955A934A933A932A931A930A9329
:1007180008955D814C813B812A8119810881089562
:00000001FF
