:080000000C942F000C94000089
:100008000C9400000C9400000C9400000C94000068
:100018000C9400000C9400000C9400000C945F00F9
:100028000C9400000C9400000C9400000C94000048
:100038000C9400000C9400000C9400000C94000038
:100048000C9400000C9400000C94000080C0020086
:10005800600154000000F894EE27ECBBF1E0FBBF10
:10006800EBBFE5BFF8E1F1BDE1BD8DE0A2E0BB2744
:10007800ED938A95E9F780E094E0A0E6ED93019787
:10008800E9F7E6E5F0E085919591009761F0A59193
:10009800B59105901590BF01F00105900D9201975B
:1000A800E1F7FB01F0CFEFE5EDBFE4E0EEBFC0E61E
:1000B800D1E00C946A00EA93EFB74394541410F01B
:1000C800C29801C0C29AEFBFE9911895E0E0EBBB76
:1000D800EABBE8BBEFEFE7BBE0E0E5BBE4BBE2BBB4
:1000E800E1BBE1E0E3BFE0E0E2BFECBFEFBDEEBDA6
:1000F800EDBDECBDE7BDE6BDEBBDEABDE9BDE8BDC4
:10010800E2BDE5BDE4BDE3BDE5BFE4BFE1E0E9BFB5
:10011800E0E0EAB9E0E8E8B9E0E0E0BFE6B9EDB967
:10012800E6BFA0E138D07894552460D0E2E35E2E93
:100138005DD0E6E95E2E5AD0EFEF5E2E57D0F4CFB1
:10014800FFCFAA93E2B3EF70AE2FE881E07FEA2BEE
:10015800E2BB87E08A95F1F7929A82E18A95F1F7F6
:10016800929882E18A95F1F73FC0AA93A881E9DFC6
:10017800E881E295E883A881E4DF88EB8A95F1F7C6
:1001880033C0A2E037D0ACE0F0DFA1E033D0E0E04C
:100198006E2E7E2E0895AA93E1B3E06FE1BB8A9A92
:1001A800889A899A9298909891989880E881E058CE
:1001B800E0936201E881E054E0936301A4E1B0E0D8
:1001C8000E940A011CD01BD01AD0A0E2BADF84E139
:1001D80091E00197F1F7A8E2C8DFA4E0C6DFA5E83F
:1001E800C4DFA6E0C2DFCDDF21960895A8EEB3E014
:1001F8000C940A01BADFA3E0B0E00C940A01A0E372
:10020800A0DF84E191E00197F1F70895109639F0A5
:100218008DEC9AE00197F1F7A8951197C9F7089521
:00000001FF
