:100000000C9430000C9400000C9400000C94000040
:100010000C9400000C9400000C9400000C94000060
:100020000C9400000C9400000C9400000C94000050
:100030000C9400000C9400000C9400000C94000040
:100040000C9400000C9400000C9400000C94000030
:100050000C9400000408102004006001540000000B
:10006000F894EE27ECBBF1E0FBBFEBBFE5BFF8E196
:10007000F1BDE1BD8DE0A2E0BB27ED938A95E9F7E4
:1000800080E094E0A0E6ED930197E9F7E8E5F0E081
:1000900085919591009761F0A591B5910590159086
:1000A000BF01F00105900D920197E1F7FB01F0CF40
:1000B000EFE5EDBFE4E0EEBFC0E6D1E00C946000F8
:1000C000E0E0EBBBEABBE8BBECE3E7BBE0E0E5BBB1
:1000D000E4BBE2BBE1BBE3BFE2BFECBFEFBDEEBD03
:1000E000EDBDECBDE7BDE6BDEBBDEABDE9BDE8BDDC
:1000F000E2BDE5BDE4BDE3BDE5BFE4BFE9BFEAB9EC
:10010000E0E8E8B9E0E0E0BFE6B9EDB9E6BFB09BF2
:1001100011C05524E4E0E51560F0E52DF0E0E05A6B
:10012000FE4F408048BAA4E6B0E00E949E0053947F
:10013000F1CF02C0E0E0E8BBEACFFFCF109639F084
:100140008DEC9AE00197F1F7A8951197C9F70895FA
:00000001FF
