:080000000C942A000C9400008E
:100008000C9400000C9400000C9400000C94000068
:100018000C9400000C9400000C9400000C94000058
:100028000C9400000C9400000C9400000C94000048
:100038000C9400000C9400000C9400000C94000038
:100048000C9400000C9400000C940000F894EE2727
:10005800ECBBF1E0FBBFEBBFE5BFF8E1F1BDE1BDF3
:100068008DE0A2E0BB27ED938A95E9F780E094E064
:10007800A0E6ED930197E9F7EFE5EDBFE4E0EEBF09
:10008800C0E6D1E00C944800E0E0EBBBEABBE8BB7B
:10009800ECE3E7BBE0E0E5BBE4BBE2BBE1BBE3BF0D
:1000A800E2BFECBFEFBDEEBDEDBDECBDE7BDE6BD0B
:1000B800EBBDEABDE9BDE8BDE2BDE5BDE4BDE3BD1C
:1000C800E5BFE4BFE9BFEAB9E0E8E8B9E0E0E0BFCE
:1000D800E6B9EDB9E6BFE4E004D0E0E002D0FBCF3A
:1000E800FFCFE8BBA4E6B0E00C947A00109639F094
:1000F8008DEC9AE00197F1F7A8951197C9F7089543
:00000001FF
