:060000000C9442000C9478
:1000060000000C9400000C9400000C9400000C946A
:1000160000000C9400000C9400000C9400000C945A
:1000260072000C9400000C9400000C9400000C94D8
:1000360000000C9400000C9400000C9400000C943A
:1000460000000C9400000C9400000C940000102793
:10005600E80364000A00010000100001100001001E
:1000660050574D203D2025336400414443203D2018
:100076002533640080C0020070017A000000F89405
:10008600EE27ECBBF1E0FBBFEBBFE5BFF8E1F1BD4E
:10009600E1BD8DE0A2E0BB27ED938A95E9F780E00C
:1000A60094E0A0E6ED930197E9F7ECE7F0E085919F
:1000B6009591009761F0A591B59105901590BF01B6
:1000C600F00105900D920197E1F7FB01F0CFEFE506
:1000D600EDBFE4E0EEBFC0E6D1E00C948A00EA93FF
:1000E600EFB77394471410F0A99801C0A99AEFBF0F
:1000F600E9911895AA93E881E7B985E28A95F1F71F
:10010600369A349BFECF349AE4B1F5B1F2C0E0E002
:10011600EBBBEABBE8BBE7BBE5BBEFEFE4BBE0E06C
:10012600E2BBE1BBE1E0E3BFE0E0E2BFECBFEFBD75
:10013600EEBDEDBDECBDE7BDE6BDEBBDEABDE9BD7F
:10014600E8BDE2BDE5BDE4BDE3BDE5BFE4BFE1E07A
:10015600E9BFE0E0EAB9E0E8E8B9E0E0E0BFE7B926
:10016600E4E8E6B9E0E0EDB9E6BFA0E196D0789420
:10017600A0E0C0DF5E2EEAE85E1638F0E52DE05816
:10018600EE0FEF5F4E2EA8980BC0E6E7E51538F0A8
:10019600E52DEE0FAFEFAE1B4A2EA89A01C0442400
:1001A600E0E6F1E0FA93EA93E6E6F0E0FA93EA9302
:1001B600E42D0E944203A0E00E944E03E0E6F1E037
:1001C600FA93EA93E0E7F0E0FA93EA93E52D0E94CA
:1001D6004203A1E00E944E03CBCFFFCFAA93E2B326
:1001E600EF70AE2FE881E07FEA2BE2BB87E08A95CD
:1001F600F1F7929A82E18A95F1F7929882E18A95CF
:10020600F1F777C0AA93A881E9DFE881E295E88350
:10021600A881E4DF88EB8A95F1F76BC0AA93E881A1
:10022600F0E0E059FE4FE081A981AE0FEBDF698077
:10023600988022960895A2E00E945403ACE0E2DF83
:10024600A1E00E945403E0E09E2E6E2E0895AA932C
:10025600A881AA3011F0681448F0E0E0EA9393947C
:10026600A92DDCDFA881AA3009F443C06394909AD3
:10027600A881C8DF90983DC0BA93AA931A93A98122
:10028600BA81ED91A983BA831E2FE03019F0A12F10
:10029600DEDFF5CF188123960895AA93E1B3E06FC8
:1002A600E1BB8A9A889A899A9298909891988880C0
:1002B600E881E058E0937201E881E054E09373012D
:1002C600A4E1B0E00E948E030E945A030E945A03E2
:1002D6000E945A03A0E282DF84E191E00197F1F7E0
:1002E600A8E290DFA4E08EDFA5E88CDFA6E08ADF37
:1002F600A2DF21960895BA93AA931A930A93AA8124
:10030600BB8112960E94A003309759F1AA81BB8146
:1003160014960E94A0038F01309761F00230E0E04E
:100326001E07F0F0F80131978F01AA81BB81149660
:10033600ED93FC93AA81BB811296ED91FD913196C6
:10034600FE93EE933197AC81A083AA81BB810E9474
:10035600A003FF232AF0ED91FD913196FE93EE93D3
:1003660006C0AA81BB81EFEFFFEFED93FC931981E5
:10037600088125960895BA93AA9326970E94AD03FD
:1003860010E0AC85BD85E0E0F0E0ED93FC93EA89F2
:10039600FB893196EA8BFB8B3197E4912E2FE03067
:1003A60011F40C94ED02E12FE03039F4253211F40A
:1003B60011E002C00E9462030CC1E130A9F42532AB
:1003C60019F40E94620304C112E040E000E02D32FD
:1003D60011F401E0FEC02B3211F44BE2FAC02032D8
:1003E60011F440E2F6C002C0E23039F450E013E006
:1003F600203311F40068EDC004C0E33011F00C9412
:10040600EC02203310F02A3308F007C0AAE05A9F06
:10041600502DE22FE0535E0FDCC0E22FE33649F4A5
:100426000E946903E889F989A481AA930E946F034F
:10043600CFC0E33741F40E9469030E9475030E940E
:1004460029031E2F0AC0E03761F40E9469030E9447
:1004560075030E9435031E2F086002600F7730E097
:1004660035C0E43611F0E93611F4046002C0E53710
:1004760031F4E4E5F0E0EE83FF8315E00DC0E835E6
:1004860011F4086004C0E83711F00C94EB02EEE5B5
:10049600F0E0EE83FF8314E002FF14C00E946903BC
:1004A6000E947F03AB85AA233AF4EA85FB850E9466
:1004B6009C03EA87FB874DE2403011F01F5F01C0C5
:1004C6000B7F04C00E9469030E947F0300FD11C0D8
:1004D600151778F407FF08C002FF04C00B7F242F0E
:1004E600115001C020E301C020E20E946203515076
:1004F600EFCF312F01FF17C03030A1F003FF06C048
:10050600EE81FF812591EE83FF8305C0AE81BF8119
:100516002D91AE83BF830E946203503009F0515083
:100526003150EACF4BC020E3EE81FF810E94A40345
:10053600E887F987EE81FF813296EE83FF83E885AF
:10054600F985AA85BB85AE17BF0750F02F5FA88532
:10055600B985EA85FB85EA1BFB0BEA87FB87EFCFAC
:100566002A3328F003FF02C0295F01C0295D04FD7C
:100576001AC0213320F4A885B985119709F409C05A
:10058600531710F000FF01C013C020E207FF0BC095
:1005960020E3006102FF07C00B7F4A930E946F03AE
:1005A600503009F051500E946203503009F051500A
:1005B6003150A885B985129708F0B5CF00FF08C05D
:1005C600503031F05150E0E2EA930E946F03F8CFC9
:1005D60010E0DDCEAC85BD850E94A0030E94B40369
:1005E60064960895FF92F82E26970E94AF030E9404
:1005F6008703309719F4EFEFFFEF23C0DE0116965D
:100606000E9498038D010E948703EE83FF83E0E03A
:10061600E887E987DE011A960E9498030E94A003E4
:10062600FA93EA931A930A93EEE7F1E0FA93EA93C0
:10063600DE011A96A0DE9F01AE81BF81E0E0EC9359
:10064600F9010E94B6032A96FF900895BA93AA93D9
:10065600A991B991EE27FF276D91662311F0319686
:10066600FBCF0895BA93AA93AA27BB27E991F991DC
:100676000590002011F01196FBCFFD010895FF278C
:10068600662777270E94A80384E00E94F502289631
:10069600E0E0EA9308950E941101A0E6B1E00C940F
:1006A6003F010E940501A3E0B0E00C948E03A0E395
:1006B6000E94F10084E191E00197F1F708952A93F1
:1006C600AD85BE85EF85F88909950895E889F9898C
:1006D6003497E88BF98B0895AD85BE85EF85F8894B
:1006E60009950895A889B98914960E94A003EE83F6
:1006F600FF83AE81BF810895A889B98914960E94A7
:10070600A003EA87FB870895DE011C960E949803E2
:100716000E94A0030895109639F08DEC9AE0019797
:10072600F1F7A8951197C9F708950024AF0DB01DEC
:100736000895F195E195F0400895ED91FC9111979A
:1007460008950590F491E02D08957A936A93FA93AB
:10075600EA9308955A934A933A932A931A930A93DB
:1007660008955D814C813B812A8119810881089514
:00000001FF
