:040000000C942A0032
:100004000C9400000C9400000C9400000C9400006C
:100014000C9400000C9400000C9400000C9400005C
:100024000C9400000C9400000C9400000C9400004C
:100034000C9400000C9400000C9400000C9400003C
:100044000C9400000C9400000C9400000C9400002C
:10005400F894EE27ECBBF1E0FBBFEBBFE5BFF8E1A2
:10006400F1BDE1BD8DE0A2E0BB27ED938A95E9F7F0
:1000740080E094E0A0E6ED930197E9F7EFE5EDBFAA
:10008400E4E0EEBFC0E6D1E00C944800EFEFEBBB38
:10009400EABBE8BBE7BBE5BBE4BBE0E0E2BBE1BB3A
:1000A400E3BFE2BFECBFEFBDEEBDEDBDECBDE7BD10
:1000B400E6BDEBBDEABDE9BDE8BDE2BDE5BDE4BD1D
:1000C400E3BDE5BFE4BFE9BFEAB9E0E8E8B9E0E0D1
:1000D400E0BFE6B9EDB9E6BFE6E0EBBBE3E01FD075
:1000E400E5E0EBBB1CD0E3E0EBBBE6E0E8BBE5E01E
:1000F400E5BBA0EDB7E00E949800E5E0EBBBE8BBF0
:10010400A8EEB3E00E949800E6E0EBBBE8BBE3E0B6
:10011400E5BBA8EBBBE00E949800DECFFFCFE8BBB5
:10012400E6E0E5BBA8EBBBE00C949800109639F030
:100134008DEC9AE00197F1F7A8951197C9F7089506
:00000001FF
