:020000000C945E
:100002002A000C9400000C9400000C9400000C9444
:1000120000000C9400000C9400000C9400000C945E
:1000220000000C9448000C9400000C9400000C9406
:1000320000000C9400000C9400000C9400000C943E
:1000420000000C9400000C9400000C9400000C942E
:100052000000F894EE27ECBBF1E0FBBFEBBFE5BF7D
:10006200F8E1F1BDE1BD8DE0A2E0BB27ED938A95F9
:10007200E9F780E094E0A0E6ED930197E9F7EFE578
:10008200EDBFE4E0EEBFC0E6D1E00C944900189564
:10009200E0E0EBBBEABBE8BBE7BBE5BBEFEFE4BBF1
:1000A200E0E0E2BBE1BBE1E0E3BFE0E0E2BFECBFE6
:1000B200EFBDEEBDEDBDECBDE7BDE6BDEBBDEABDFE
:1000C200E9BDE8BDE2BDE5BDE4BDE3BDE5BFE4BF1A
:1000D200E1E0E9BFE0E0EAB9E0E8E8B9E0E0E0BF8A
:1000E200E6B9EDB9E6BF7894AA98AC9AAA9A0AD072
:1000F200AA9AAC98AA9A06D0AA98AC98AA9802D0C2
:10010200F3CFFFCFA8EEB3E00C948700109639F03E
:100112008DEC9AE00197F1F7A8951197C9F7089528
:00000001FF
