:0E0000000C943D000C9400000C9400000C9435
:10000E0000000C9400000C9400000C9400000C9462
:10001E0000000C9400000C946D000C9400000C94E5
:10002E0000000C9400000C9400000C9400000C9442
:10003E0000000C9400000C9400000C9400000C9432
:10004E0000000C9400001027E80364000A00010071
:10005E00001000011000010054434E54302533644B
:10006E00000080C00200700170000000F894EE27BE
:10007E00ECBBF1E0FBBFEBBFE5BFF8E1F1BDE1BDCD
:10008E008DE0A2E0BB27ED938A95E9F780E094E03E
:10009E00A0E6ED930197E9F7E2E7F0E085919591FF
:1000AE00009761F0A591B59105901590BF01F001F3
:1000BE0005900D920197E1F7FB01F0CFEFE5EDBF53
:1000CE00E4E0EEBFC0E6D1E00C947900EA93FA9337
:1000DE00EFB7EA93F20131962F01E991EFBFF99153
:1000EE00E9911895E0E0EBBBEABBE8BBECE7E7BBB8
:1000FE00E0E0E5BBE4BBE2BBE1BBE6E0E3BFE0E092
:10010E00E2BFECBFEFBDEEBDEDBDECBDE7BDE6BDA4
:10011E00EBBDEABDE9BDE8BDE2BDE5BDE4BDE3BDB5
:10012E00E5BFE4BFE1E0E9BFE0E0EAB9E0E8E8B945
:10013E00E0E0E0BFE6B9EDB9E6BFA0E10E94D5026E
:10014E007894E0E6F1E0FA93EA93E6E6F0E0FA93CB
:10015E00EA93E2B7FF27662777270E941C03A0E0E9
:10016E000E942503E0E6F1E0FA93EA93EBE6F0E075
:10017E00FA93EA93F2010E9477030E941C03A1E016
:10018E000E942503DECFFFCFBA93AA931A930A9348
:10019E00AA81BB8112960E947C03309759F1AA81E5
:1001AE00BB8114960E947C038F01309761F0023060
:1001BE00E0E01E07F0F0F80131978F01AA81BB81B4
:1001CE001496ED93FC93AA81BB811296ED91FD914D
:1001DE003196FE93EE933197AC81A083AA81BB81B9
:1001EE000E947C03FF232AF0ED91FD913196FE9340
:1001FE00EE9306C0AA81BB81EFEFFFEFED93FC9368
:10020E001981088125960895BA93AA9326970E947C
:10021E00890310E0AC85BD85E0E0F0E0ED93FC9342
:10022E00EA89FB893196EA8BFB8B3197E4912E2F6D
:10023E00E03011F40C943A02E12FE03039F425321B
:10024E0011F411E002C00E942B030CC1E130A9F49D
:10025E00253219F40E942B0304C112E040E000E0A5
:10026E002D3211F401E0FEC02B3211F44BE2FAC034
:10027E00203211F440E2F6C002C0E23039F450E010
:10028E0013E0203311F40068EDC004C0E33011F028
:10029E000C943902203310F02A3308F007C0AAE07C
:1002AE005A9F502DE22FE0535E0FDCC0E22FE33653
:1002BE0049F40E943203E889F989A481AA930E9425
:1002CE003803CFC0E33741F40E9432030E943E034D
:1002DE000E9403031E2F0AC0E03761F40E9432030E
:1002EE000E943E030E940F031E2F086002600F77CC
:1002FE0030E035C0E43611F0E93611F4046002C086
:10030E00E53731F4E4E5F0E0EE83FF8315E00DC050
:10031E00E83511F4086004C0E83711F00C94380287
:10032E00EEE5F0E0EE83FF8314E002FF14C00E94BE
:10033E0032030E944803AB85AA233AF4EA85FB8573
:10034E000E947303EA87FB874DE2403011F01F5F76
:10035E0001C00B7F04C00E9432030E94480300FDBF
:10036E0011C0151778F407FF08C002FF04C00B7FF9
:10037E00242F115001C020E301C020E20E942B0364
:10038E005150EFCF312F01FF17C03030A1F003FFD6
:10039E0006C0EE81FF812591EE83FF8305C0AE81FD
:1003AE00BF812D91AE83BF830E942B03503009F085
:1003BE0051503150EACF4BC020E3EE81FF810E94B5
:1003CE008003E887F987EE81FF813296EE83FF8303
:1003DE00E885F985AA85BB85AE17BF0750F02F5F5C
:1003EE00A885B985EA85FB85EA1BFB0BEA87FB87A7
:1003FE00EFCF2A3328F003FF02C0295F01C0295D29
:10040E0004FD1AC0213320F4A885B985119709F48B
:10041E0009C0531710F000FF01C013C020E207FF00
:10042E000BC020E3006102FF07C00B7F4A930E94BE
:10043E003803503009F051500E942B03503009F010
:10044E0051503150A885B985129708F0B5CF00FFED
:10045E0008C0503031F05150E0E2EA930E94380368
:10046E00F8CF10E0DDCEAC85BD850E947C030E94E6
:10047E00900364960895FF92F82E26970E948B03A0
:10048E000E945003309719F4EFEFFFEF23C0DE0107
:10049E0016960E946F038D010E945003EE83FF8318
:1004AE00E0E0E887E987DE011A960E946F030E945A
:1004BE007C03FA93EA931A930A93EBECF0E0FA9327
:1004CE00EA93DE011A96A0DE9F01AE81BF81E0E0C5
:1004DE00EC93F9010E9492032A96FF900895AA9335
:1004EE00E2B3EF70AE2FE881E07FEA2BE2BB87E04C
:1004FE008A95F1F7929A82E18A95F1F7929882E1C4
:10050E008A95F1F777C0AA93A881E9DFE881E29591
:10051E00E883A881E4DF88EB8A95F1F76BC0AA9394
:10052E00E881F0E0E059FE4FE081A981AE0FEBDFEC
:10053E007980688022960895A2E00E945703ACE06D
:10054E00E2DFA1E00E945703E0E06E2E7E2E0895BA
:10055E00AA93A881AA3011F0791448F0E0E0EA934A
:10056E006394A62DDCDFA881AA3009F443C07394EE
:10057E00909AA881C8DF90983DC0BA93AA931A9317
:10058E00A981BA81ED91A983BA831E2FE03019F0AB
:10059E00A12FDEDFF5CF188123960895AA93E1B33C
:1005AE00E06FE1BB8A9A889A899A9298909891986E
:1005BE009880E881E058E0937201E881E054E0937E
:1005CE007301A4E1B0E00E9465030E945D030E94E6
:1005DE005D030E945D03A0E282DF84E191E001975A
:1005EE00F1F7A8E290DFA4E08EDFA5E88CDFA6E0AD
:1005FE008ADFA2DF21960895BA93AA93A991B991A1
:10060E00EE27FF276D91662311F03196FBCF0895EB
:10061E00BA93AA93AA27BB27E991F99105900020D6
:10062E0011F01196FBCFFD0108950E94840384E022
:10063E000E9442022896E0E0EA9308950E949602F4
:10064E00A0E6B1E00C94C4022A93AD85BE85EF8579
:10065E00F88909950895E889F9893497E88BF98B1B
:10066E000895AD85BE85EF85F88909950895A88909
:10067E00B98914960E947C03EE83FF83AE81BF81FD
:10068E000895A889B98914960E947C03EA87FB878E
:10069E000895DE011C960E946F030E947C0308954C
:1006AE000E948A02A3E0B0E00C946503A0E30E94CE
:1006BE00760284E191E00197F1F70895109639F0F2
:1006CE008DEC9AE00197F1F7A8951197C9F7089567
:1006DE000024AF0DB01D0895F195E195F0400895F9
:1006EE006F2F660F660B762F0895ED91FC91119783
:1006FE0008950590F491E02D08957A936A93FA93F4
:10070E00EA9308955A934A933A932A931A930A9323
:10071E0008955D814C813B812A811981088108955C
:00000001FF
