:040000000C943B0021
:100004000C9400000C9400000C9400000C9400006C
:100014000C9400000C9400000C9400000C9400005C
:100024000C9400000C9400000C9400000C9400004C
:100034000C9400000C9400000C9400000C9400003C
:100044000C9400000C9400000C9400000C9400002C
:1000540042454C414A4152004D494B524F4B4F4E41
:1000640054524F4C4552000080C0020060016C00A5
:100074000000F894EE27ECBBF1E0FBBFEBBFE5BF5B
:10008400F8E1F1BDE1BD8DE0A2E0BB27ED938A95D7
:10009400E9F780E094E0A0E6ED930197E9F7EEE656
:1000A400F0E085919591009761F0A591B591059047
:1000B4001590BF01F00105900D920197E1F7FB0146
:1000C400F0CFEFE5EDBFE4E0EEBFC0E6D1E00C9485
:1000D4006B00E0E0EBBBEABBE8BBE7BBE5BBE4BB22
:1000E400E2BBE1BBE3BFE2BFECBFEFBDEEBDEDBDE4
:1000F400ECBDE7BDE6BDEBBDEABDE9BDE8BDE2BDD3
:10010400E5BDE4BDE3BDE5BFE4BFE9BFEAB9E0E8AE
:10011400E8B9E0E0E0BFE6B9EDB9E6BFA0E16FD031
:10012400E0E0EA93A0E02CD0A4E5B0E055D0E2E012
:10013400EA93A1E025D0ACE5B0E04ED0F1CFFFCFFB
:10014400AA93E2B3EF70AE2FE881E07FEA2BE2BB23
:1001540087E08A95F1F7929A82E18A95F1F792986D
:1001640082E18A95F1F774C0AA93A881E9DFE88156
:10017400E295E883A881E4DF88EB8A95F1F768C00B
:10018400AA93E881F0E0E05AFE4FE081A981AE0F26
:10019400EBDF5980488022960895A2E05BD0ACE062
:1001A400E3DFA1E057D0E0E04E2E5E2E0895AA933F
:1001B400A881AA3011F0571448F0E0E0EA93439480
:1001C400A42DDEDFA881AA3009F442C05394909A8A
:1001D400A881CADF90983CC0BA93AA931A93E98184
:1001E400FA813196E983FA833197E4911E2FE03046
:1001F40019F0A12FDCDFF3CF188123960895AA9379
:10020400E1B3E06FE1BB8A9A889A899A92989098B0
:1002140091987880E881E058E0936201E881E054A5
:10022400E0936301A4E1B0E00E94380118D017D034
:1002340016D0A0E285DF84E191E00197F1F7A8E20E
:1002440093DFA4E091DFA5E88FDFA6E08DDFA5DFD3
:100254002196089589DFA3E0B0E00C943801A0E36F
:100264006FDF84E191E00197F1F70895109639F07A
:100274008DEC9AE00197F1F7A8951197C9F70895C5
:00000001FF
