:0A0000000C944F000C9400000C94C7
:10000A0000000C9400000C9400000C9400000C9466
:10001A0000000C9400000C9400000C9400000C9456
:10002A0000000C9400000C9400000C9400000C9446
:10003A0000000C9400000C9400000C9400000C9436
:10004A0000000C9400000C94000057454C434F4D9F
:10005A004500546F6D626F6C203120446974656B82
:10006A00616E00546F6D626F6C2032204469746552
:10007A006B616E00546F6D626F6C2000546964612D
:10008A006B20646974656B616E0080C00200600158
:10009A0094000000F894EE27ECBBF1E0FBBFEBBF45
:1000AA00E5BFF8E1F1BDE1BD8DE0A2E0BB27ED932C
:1000BA008A95E9F780E094E0A0E6ED930197E9F7E5
:1000CA00E6E9F0E085919591009761F0A591B591E7
:1000DA0005901590BF01F00105900D920197E1F787
:1000EA00FB01F0CFEFE5EDBFE4E0EEBFC0E6D1E003
:1000FA000C947F00E0E0EBBBEABBE8BBE7BBE5BBE7
:10010A00E4BBE2BBE1BBE3BFE2BFECBFEFBDEEBDC8
:10011A00EDBDECBDE7BDE6BDEBBDEABDE9BDE8BDA1
:10012A00E2BDE5BDE4BDE3BDE5BFE4BFE9BFEAB9B1
:10013A00E0E8E8B9E0E0E0BFE6B9EDB9E6BFA0E182
:10014A0081D0E4E0AAD0A4E5B0E0AAD0809B05C0A3
:10015A00E0E0A3D0ACE5B0E0A3D0819B06C0E0E02C
:10016A009CD0ADE6B0E09CD00CC0E0E096D0AEE703
:10017A00B0E055D0E0E0EA93A1E025D0A6E8B0E0EF
:10018A004ED0E4CFFFCFAA93E2B3EF70AE2FE8814F
:10019A00E07FEA2BE2BB87E08A95F1F7929A82E147
:1001AA008A95F1F7929882E18A95F1F774C0AA9339
:1001BA00A881E9DFE881E295E883A881E4DF88EB9A
:1001CA008A95F1F768C0AA93E881F0E0E05AFE4FF9
:1001DA00E081A981AE0FEBDF59804880229608950D
:1001EA00A2E060D0ACE0E3DFA1E05CD0E0E04E2E1C
:1001FA005E2E0895AA93A881AA3011F0571448F0E8
:10020A00E0E0EA934394A42DDEDFA881AA3009F442
:10021A0042C05394909AA881CADF90983CC0BA937E
:10022A00AA931A93E981FA813196E983FA8331977D
:10023A00E4911E2FE03019F0A12FDCDFF3CF1881F3
:10024A0023960895AA93E1B3E06FE1BB8A9A889A4C
:10025A00899A9298909891987880E881E058E093EA
:10026A006201E881E054E0936301A4E1B0E00E94F6
:10027A0063011DD01CD01BD0A0E285DF84E191E090
:10028A000197F1F7A8E293DFA4E091DFA5E88FDFF9
:10029A00A6E08DDFA5DF21960895EA93A0E093CF2B
:1002AA00BEDF9ECF84DFA3E0B0E00C946301A0E33D
:1002BA006ADF84E191E00197F1F70895109639F029
:1002CA008DEC9AE00197F1F7A8951197C9F708956F
:00000001FF
